:100000000C9463000C94530B0C942C0B0C948B00ED
:100010000C948B000C948B000C94D7190C948B00CF
:100020000C948B000C948B000C948B000C948B0024
:100030000C948B000C948B000C948B000C948B0014
:100040000C94E20A0C948B000C94A00B0C947A0B89
:100050000C948B000C948B000C948B000C948B00F4
:100060000C948B000C948B000000000025002800ED
:100070002B0000000008000201000003040700003C
:1000800000000000000066616C73650074727565A5
:100090000000000000240027002A000102040810CC
:1000A00020408001020408102001020408102004EE
:1000B000040404040404040202020202020303030F
:1000C00003030300DA1911241FBECFEFD8E0DEBF0F
:1000D000CDBF12E0A0E0B1E0EEE0FCE302C005908D
:1000E0000D92AE38B107D9F723E0AEE8B2E001C017
:1000F0001D92A43FB207E1F710E0C3E6D0E004C0D0
:100100002197FE010E94251CC236D107C9F70E9423
:10011000821A0C94051E0C9400003FB7F89480914D
:10012000360390913703A0913803B091390326B577
:10013000A89B05C02F3F19F00196A11DB11D3FBF1F
:10014000BA2FA92F982F8827BC01CD01620F711DEE
:10015000811D911D42E0660F771F881F991F4A95E8
:10016000D1F7089590E0FC01EE58FF4F2491FC0177
:10017000E556FF4F3491FC01E155FF4FE491EE232A
:10018000C9F0222339F0233001F1A8F4213019F10C
:10019000223029F1F0E0EE0FFF1FE859FF4FA59143
:1001A000B4918FB7F894EC91611126C030953E233D
:1001B0003C938FBF08952730A9F02830C9F0243030
:1001C00049F7809180008F7D03C0809180008F77F8
:1001D00080938000DFCF84B58F7784BDDBCF84B57B
:1001E0008F7DFBCF8091B0008F778093B000D2CF0E
:1001F0008091B0008F7DF9CF3E2BDACF61E0809106
:10020000E2030C94B200CF93DF9390E0FC01E5563B
:10021000FF4F249181559F4FFC0184918823D1F099
:1002200090E0880F991FFC01EF56FF4FA591B49104
:10023000FC01E859FF4FC591D49161110EC09FB7E1
:10024000F8948C91E22FE0958E238C932881E22301
:10025000E8839FBFDF91CF9108958FB7F894EC9119
:10026000E22BEC938FBFF6CF0895DC01ED91FC916A
:100270000190F081E02D0994EF92FF920F931F936C
:10028000CF93DF938C017B01D0E0C0E0F701EC0F4E
:10029000FD1F6491662361F0D801ED91FC910190FE
:1002A000F081E02DC8010995892B11F02196EECF40
:1002B000CE01DF91CF911F910F91FF90EF900895A4
:1002C000AF92BF92CF92DF92EF92FF920F931F9364
:1002D000CF93DF936C017B018B01040F151FEB01A2
:1002E0005E01AE18BF08C017D10759F06991D60159
:1002F000ED91FC910190F081E02DC6010995892BCB
:1003000079F7C501DF91CF911F910F91FF90EF9089
:10031000DF90CF90BF90AF900895FC01538D448D36
:10032000252F30E0842F90E0821B930B541710F0A0
:10033000CF96089501970895FC01918D828D9817AD
:1003400061F0A28DAE0FBF2FB11D5D968C91928D85
:100350009F5F9F73928F90E008958FEF9FEF0895B6
:10036000FC01918D828D981731F0828DE80FF11D7F
:10037000858D90E008958FEF9FEF0895FC01918D9A
:10038000228D892F90E0805C9F4F821B91098F7393
:10039000992708958AE393E00E94BE0121E0892B0A
:1003A00009F420E0822F08950E94CA0181110C9463
:1003B0000000089580E090E0892B11F00C94D401A6
:1003C0000895FC01A48DA80FB92FB11DA35ABF4FEA
:1003D0002C91848D90E001968F739927848FA68944
:1003E000B7892C93A089B1898C91837080648C9398
:1003F000938D848D981306C00288F389E02D808147
:100400008F7D80830895EF92FF920F931F93CF9378
:10041000DF93EC0181E0888F9B8D8C8D98131AC03F
:10042000E889F989808185FF15C09FB7F894EE8926
:10043000FF896083E889F989808183708064808383
:100440009FBF81E090E0DF91CF911F910F91FF90CE
:10045000EF900895F62E0B8D10E00F5F1F4F0F7376
:100460001127E02E8C8D8E110CC00FB607FCFACF31
:10047000E889F989808185FFF5CFCE010E94E101ED
:10048000F1CFEB8DEC0FFD2FF11DE35AFF4FF08202
:100490009FB7F8940B8FEA89FB8980818062CFCF68
:1004A000CF93DF93EC01888D8823B9F0AA89BB89AB
:1004B000E889F9898C9185FD03C0808186FD0DC096
:1004C0000FB607FCF7CF8C9185FFF2CF808185FFB7
:1004D000EDCFCE010E94E101E9CFDF91CF910895E8
:1004E0008EBD00000DB407FEFDCF8EB5089580913E
:1004F00092029091930201969093930280939202BC
:1005000008950F931F930091E3031091E40320914A
:10051000E5033091E60340E052E16AE770E080E0F5
:10052000041715072607370740F476956795579502
:1005300047958F5F8630A1F787E0982F906A969550
:10054000809581709CBD8DBD60E08091E2031F911C
:100550000F910C94B200CF93C82F0E94810283E0C8
:100560000E9470028C2F0E94700280E00E94700234
:10057000C82F0E94FE008C2FCF910895FF920F93F9
:100580001F93CF93DF93C82FF62E172F042F0E94AF
:10059000810282E00E9470028C2F0E947002CF2D97
:1005A000D12F0C0F1D2F111DC017D10721F08991DC
:1005B0000E947002F9CFDF91CF911F910F91FF90B0
:1005C0000C94FE001F93CF93DF93182FD62FC42FC8
:1005D0000E94810285E00E947002812F0E947002B9
:1005E0008D2F0E9470028C2F0E947002DF91CF919C
:1005F0001F910C94FE00CF92DF92EF92FF92CF9367
:10060000C82F482F60EE8FE00E94E2028FB7F89467
:10061000C090B802D090B902E090BA02F090BB024C
:100620008FBF8AE0C80ED11CE11CF11C2FB7F894D3
:100630008091B8029091B902A091BA02B091BB0228
:100640002FBF8C159D05AE05BF0580F48EE00E947E
:10065000AB02807EC813EACF81E091E0892790E069
:10066000CF91FF90EF90DF90CF90089580E0F5CF8D
:10067000FF920F931F93CF93DF93C82FF62E172F60
:10068000042F0E94810283E00E9470028C2F0E943E
:100690007002CF2DD12F0C0F1D2F111DC017D107A8
:1006A00029F080E00E9470028993F8CFDF91CF910A
:1006B0001F910F91FF900C94FE00BF92CF92DF929A
:1006C000EF92FF920F931F93CF93DF9300D000D050
:1006D0001F92CDB7DEB78C01000F111F000F111F45
:1006E000F801EA5DFE4F45E0BE016F5F7F4F8181FB
:1006F0000E9438038A81C98098E0C99E6001112454
:10070000282F30E055E0359527955A95E1F7C20E30
:10071000D31E0D2C000CEE08FF0883FF20C092E0D2
:10072000CC0CDD1CEE1CFF1C9A95D1F78370C80E13
:10073000D11CE11CF11CFE2CED2CDC2CCC248B817B
:10074000C80ED11CE11CF11CFE2CED2CDC2CCC24A1
:100750008C81C80ED11CE11CF11C6894F7F88D81C6
:100760008F70B82EE8E081E090E0EB1528F1F801F9
:10077000EA5DFE4F80810E94AB0283FF02C0689455
:10078000F6F8C092E802D092E902E092EA02F09212
:10079000EB02B092EC020A5D1E4F4B2D60EF72E04F
:1007A000F80182810E94380340E0F80163818CE205
:1007B0000E94E20290E080E00F900F900F900F9067
:1007C0000F90DF91CF911F910F91FF90EF90DF90ED
:1007D000CF90BF900895CF93DF93D82FC62F0E945C
:1007E000810282E00E9470028D2F0E9470028C2F85
:1007F0000E947002DF91CF910C94FE00FB010190EA
:100800000020E9F73197AF01461B570BDC01ED9152
:10081000FC910280F381E02D09948F929F92AF9218
:10082000BF92EF92FF920F931F93CF93DF93CDB7B9
:10083000DEB7A1970FB6F894DEBF0FBECDBF7C0127
:10084000FA01CB0119A2223008F42AE08E010F5DD3
:100850001F4F822E912CB12CA12CBF01A501940118
:100860000E94031CF901CA016A300CF5605DD801D1
:100870006E938D01232B242B252B79F790E080E0BC
:10088000109721F0BD01C7010E94FE03A1960FB68B
:10089000F894DEBF0FBECDBFDF91CF911F910F91B6
:1008A000FF90EF90BF90AF909F908F900895695CFC
:1008B000DECF6115710511F00C94FE0390E080E02D
:1008C00008952F923F924F925F926F927F928F92F4
:1008D0009F92AF92BF92CF92DF92EF92FF920F93CF
:1008E0001F93CF93DF93CDB7DEB78F88988C0A8D97
:1008F0001B8D8091D7039091D803881599050CF42E
:1009000053C2E091DC03F091DD03309731F0B40184
:100910008091DA039091DB0309958091D9038823B4
:1009200091F0F401E35DFE4F60818091DA039091D4
:10093000DB030E94350167E471E08091DA03909156
:10094000DB030E9459047E018CE1E80EF11CD80102
:100950006C91662309F411C21801BFEF2B1A3B0AF0
:10096000653209F002C2F8018181882341F08532A5
:1009700051F48091DA039091DB030E9435018101EB
:100980000F5F1F4FE4CF833769F487010E5F1F4F5E
:10099000D7016D917C918091DA039091DB030E94E5
:1009A0005904FEC0833569F487010E5F1F4FF701BC
:1009B000608171818091DA039091DB030E943C0198
:1009C000EFC0843611F0893629F50091DA031091D1
:1009D000DB036701F2E0CF0ED11CD7014D905C9094
:1009E000052C000C660877082AE0B301A20177FE07
:1009F0000CC06DE2C8010E94350144275527BA0199
:100A000044195509660977092AE0C8010E940D04B6
:100A10007601B5CF982F9D7F943409F0AEC0009138
:100A2000DA031091DB035701B4E0AB0EB11CF70100
:100A3000C080D180E280F380A7019601C701B60192
:100A40000E94F01D6AE471E0811126C02601370181
:100A5000E89477F82FEF3FEF4FE75FE7C301B2016C
:100A60000E94F01D81110CC02FEF3FEF4FE75FE7B1
:100A7000C301B2010E94981C6EE471E0181664F084
:100A80002FEF3FEF4FE75FE4C701B6010E947E1DE5
:100A900018163CF462E571E0C8010E94FE0375017E
:100AA0006ECF2FEF3FEF4FE75FECC701B6010E941B
:100AB000981C87FDEFCF20E030E0A901C701B60107
:100AC0000E94981C87FF08C06DE2C8010E94350192
:100AD000F7FAF094F7F8F0942AE037ED43EA5BE395
:100AE000C701B6010E942C1C2B013C010E949D1CD9
:100AF0006B017C010E94CC1C9B01AC01C301B201C3
:100B00000E942B1C2B013C012AE0B701A601C80161
:100B10000E940D046EE2C8010E94350120E030E021
:100B200040E251E4C301B2010E94831D2B013C014C
:100B30000E949D1C6B01F12CE12C2AE0B701A6015B
:100B4000C8010E940D04C701B6010E94CC1C9B0184
:100B5000AC01C301B2010E942B1C20E030E040E256
:100B600051E40E94831D0E949D1CAB0170E060E077
:100B70002AE0C8010E940D0492CF883799F48701BA
:100B80000E5F1F4FD7014D915C91052E000C660B37
:100B9000770B20E18091DA039091DB030E940D0432
:100BA0007801EDCE8835A1F566E571E08091DA0334
:100BB0009091DB030E94590487010E5F1F4FF701DC
:100BC000E080F180FFEFEF16FFE0FF06E8F460E35E
:100BD0008091DA039091DB030E9435018FEFE816D4
:100BE000F10490F460E38091DA039091DB030E94BA
:100BF0003501AFE0EA16F10438F460E38091DA03DE
:100C00009091DB030E943501A70170E060E0C1CF45
:100C1000803791F487010E5F1F4FF701808191812A
:100C20006091DA037091DB03DC01ED91FC9101909E
:100C3000F081E02D0995B4CF823661F487010E5F13
:100C40001F4FF70140815181052E000C660B770B79
:100C500022E0A0CF823479F469E571E08091DA0373
:100C60009091DB030E94590487010E5F1F4FD7014B
:100C70004D915C91E9CF8C3671F40091DA031091BB
:100C8000DB036701B4E0CB0ED11CF701408051803B
:100C900062807380A9CE853751F487010C5F1F4FA6
:100CA000D7014D915D916D917C912AE073CF833690
:100CB00061F487010E5F1F4FF70160818091DA03B5
:100CC0009091DB030E9435016BCF833419F58701C6
:100CD0000E5F1F4FD701FC908091DA039091DB03E8
:100CE00020EE2F0D2F3510F46F2DECCF66E571E05F
:100CF0000E945904BEE0BF153CF060E38091DA0326
:100D00009091DB030E9435014F2DFF0C550B660BB4
:100D1000770B3FCF843799F487010E5F1F4F809187
:100D2000DA039091DB03F701208131816CE571E0FA
:100D30002130310509F433CE6EE571E030CE8435D3
:100D400009F01DCE87010E5F1F4F8091DA0390914D
:100D5000DB03D7012D913C916CE870E02130310527
:100D600009F42CCE66E870E029CE8091DA039091E8
:100D7000DB030E943501180102CEE091DE03F09101
:100D8000DF03309731F0B4018091DA039091DB03F7
:100D90000995898D882341F06BE672E08091DA0332
:100DA0009091DB030E945904DF91CF911F910F9125
:100DB000FF90EF90DF90CF90BF90AF909F908F907B
:100DC0007F906F905F904F903F902F90089561E0DB
:100DD00086E00E94B20061E087E00E94B2000E94BB
:100DE000491160E086E00E94B20060E087E00E9466
:100DF000B2000E944911EBCF8F929F92AF92BF92A7
:100E0000CF92DF92EF92FF920F931F93CF93DF93D6
:100E1000CDB7DEB7A2970FB6F894DEBF0FBECDBF39
:100E2000E0914A03F0914B0382E08083E091460316
:100E3000F09147031082E0914803F091490380E16B
:100E4000808310925203E0914E03F0914F0386E0AD
:100E50008083E0914C03F0914D0380818061808319
:100E6000E0914C03F0914D03808188608083E09194
:100E70004C03F0914D03808180688083E0914C03A6
:100E8000F0914D0380818F7D808383E090E090938B
:100E9000D8038093D70381E08093D9038AE393E05A
:100EA0009093DB038093DA0361E086E00E94030104
:100EB00061E087E00E94030160E083E00E9403019B
:100EC00087E792E090930401809303018091690089
:100ED000837F886080936900E99A0E94810280EC98
:100EE0000E9470020E94FE000E948D004B015C0176
:100EF0003AE0C32ED12CE12CF12C0E948D00681910
:100F000079098A099B09683E734081059105A8F318
:100F100021E0C21AD108E108F10888EE880E83E0CA
:100F2000981EA11CB11CC114D104E104F10429F7DD
:100F30008E010F5F1F4F8EE0F80111928A95E9F73D
:100F40004EE0B80180E30E94BE024EE0B80180E4AA
:100F50000E94BE024EE0B80180E50E94BE0260E041
:100F600080E60E94EB0360E080E70E94EB0363EA07
:100F70008BE20E94EB0344E067E680E60E94E20217
:100F800041E067E680E70E94E2028CE0EBE0F1E0FE
:100F9000DE011F9601900D928A95E1F76E01FFE048
:100FA000CF0ED11CF12CE12C28E0B22EF6010191DC
:100FB00011916F0180E80E94FB02892B61F40230DD
:100FC000110509F476C010F50115110509F477C073
:100FD0000130110531F180E80E94FB02892B09F0F4
:100FE00077C063E08AE20E94EB0360EF89E20E942F
:100FF000EB0366E888E20E94EB0380E00E94FB02BC
:10100000892B09F476C082E891E064C004301105B0
:1010100009F453C008F44FC005301105E1F688E12A
:1010200001C084E0F1E0EF16F10409F04AC01E8E21
:101030001D8EBC8E1B8E44E0BE01655E7F4F0E94FC
:10104000BE022FEFE21AF20A86E0E816F10409F078
:10105000ADCF18A21F8E81E090E09AA389A38E01E4
:10106000015E1F4F6E0193E2C90ED11C98E0B92EAC
:10107000F801E190F1908F0180E80E94FB02892B3A
:1010800009F0A9CF1E8E1D8EBC8E1B8EE114F104BB
:10109000E9F0EA94EF2809F09ECF84E244E0BE0133
:1010A000655E7F4F0E94BE020C151D0509F493CFAB
:1010B000DFCF88E0B7CF80E1B5CF84E1B3CF80E068
:1010C000B1CF1B8E1C8E1E8E1D8EB5CF80E2E6CF5B
:1010D0008DE691E09F938F9381E08F931F9282E042
:1010E0008F9387ED93E09F938F930E9461040E94FA
:1010F000E70686EF90E0A0E0B0E08093E8029093EE
:10110000E902A093EA02B093EB0284E0F82EF09299
:10111000EC021092F0021092F1021092F202109280
:10112000F30210E000E022E040E051E06BE971E002
:1011300089E299E00E945314D82E21E040E051E06A
:1011400067EA71E081EE98E00E945314E82E21E0F6
:10115000D21202C0821719F080EB91E0BBCF87EC6E
:1011600091E09F938F93EF921F92FF9207ED13E010
:101170001F930F930E9461040E947B158BED91E0F9
:101180009F938F93EF921F92FF921F930F930E9452
:1011900061040FB6F894DEBF0FBECDBFA2960FB6A6
:1011A000F894DEBF0FBECDBFDF91CF911F910F919D
:1011B000FF90EF90DF90CF90BF90AF909F908F9077
:1011C0000895809194029091950282309105A1F04A
:1011D00028F40197E1F00E94790EF3CF8330910556
:1011E00039F10497C1F761E087E00E94B20061E045
:1011F00086E00E94B200EFCF61E086E00E94B2007C
:1012000085E290E00E94051160E086E00AC061E09E
:1012100087E00E94B20085E290E00E94051160E044
:1012200087E00E94B20085E290E00E940511D3CFD2
:1012300061E087E00E94B20061E086E00E94B200B7
:1012400085E290E00E94051160E087E00E94B20014
:10125000DBCFCF93DF93CDB7DEB76A970FB6F894A5
:10126000DEBF0FBECDBF07ED13E022242394312C47
:10127000B2E08B2E912C412C82E0582E612C712CE7
:10128000CE0144969D8B8C8B0E94810280EA0E9445
:10129000700280E00E947002F82E0E94FE0090E032
:1012A00080E0F0FC04C0F1FE61C181E090E00E94AA
:1012B0005D03892B09F05AC18091E8029091E902FF
:1012C000A091EA02B091EB028115E2E09E07A10530
:1012D000B10509F45BC08115F3E09F07A105B105D5
:1012E00009F487C0811521E09207A105B10509F035
:1012F00057C1F090F00282E0F816F1F18F15B0F0CE
:1013000091E0F91601F189EE91E09F938F9381E0CE
:101310008F931F9283E08F931F930F930E9461041A
:101320000FB6F894DEBF0FBECDBF11C0A3E0FA1612
:1013300041F1B4E0FB12E7CF83E090E09093950297
:101340008093940204C010929502109294021F920E
:10135000FF9283E092E09F938F9381E08F931F929F
:1013600086E08F931F930F930E9461040FB6F89449
:10137000DEBF0FBECDBFFAC090929502809294025C
:10138000E6CF3092950220929402E1CFF090F002E5
:1013900092E0F91689F0A3E0FA1699F0B1E0FB1299
:1013A00015C010929702109296021F92FF92AEE320
:1013B000B2E0BF93AF93D1CF3092970220929602C2
:1013C000F4CF9092970280929602EFCFE1E2F2E0A2
:1013D000FF93EF9381E08F931F9283E08F931F938E
:1013E0000F930E9461040FB6F894DEBF0FBECDBF0D
:1013F000DCCF4092E8025092E9026092EA027092D9
:10140000EB02F894809192029091930210929302D1
:101410001092920278948093F0029093F1029F933D
:101420008F93AEE5B2E0BF93AF931F921F9286E019
:101430008F931F930F930E9461040FB6F894DEBF41
:101440000FBECDBF8091EC02893008F08FC086E0DE
:10145000E7E1F1E0DE011E9601900D928A95E1F739
:101460006E019EE0C90ED11CD601AD90BD906D01FC
:101470007501EE0CFF1CF701EA0DFB1DE35EFE4F4C
:10148000B081BE8B8B2F0E94AB0283FD82C0D090B7
:10149000EC02E8E0ED1508F469C04091E8025091D3
:1014A000E9026091EA027091EB02DB01CA01882730
:1014B000B7FD83959927AA27BB27282FDB01CA01EF
:1014C00088279927AA27B0748F8B988FA98FBA8FF6
:1014D0008FEF9FEFAFEFBFE1211104C08FEF97E0D7
:1014E000A0E0B0E084239523A623B723222309F4A8
:1014F00040C08C839B83CD01AA27BB27282F220FB6
:10150000220F220F207E382F33703860232B2A833E
:1015100035E0969587953A95E1F789838F89988D7F
:10152000A98DBA8D892B8A2B8B2B89F18D2D806407
:101530008D834D2D50E060EF72E0CE0106960E9443
:10154000F51D45E04D0DF701EA0DFB1DE35EFE4F75
:10155000BE016F5F7F4F81810E94BE0248E068E05C
:101560008E890E94E2028E890E94AB020E94790E4F
:101570008BCE9C0193E0369527959A95E1F72983C8
:101580008295880F807E8A831C821B82C7CF8D2D17
:10159000CFCFAC89BD89CA16DB0609F065CFE6CF8F
:1015A000BF93AF939F938F93EDE6F2E0FF93EF939A
:1015B00081E08F931F9283E08F931F930F930E947C
:1015C0006104D4CE1F920F920FB60F9211242F9365
:1015D0003F938F939F93AF93BF938091B802909165
:1015E000B902A091BA02B091BB023091B70223E0D8
:1015F000230F2D3758F50196A11DB11D2093B70279
:101600008093B8029093B902A093BA02B093BB0240
:101610008091360390913703A0913803B09139033C
:101620000196A11DB11D8093360390933703A093BB
:101630003803B0933903BF91AF919F918F913F9140
:101640002F910F900FBE0F901F90189526E8230F33
:101650000296A11DB11DD2CF1F920F920FB60F920D
:1016600011242F933F934F935F936F937F938F93A7
:101670009F93AF93BF93EF93FF93E0910301F0919A
:1016800004010995FF91EF91BF91AF919F918F91C7
:101690007F916F915F914F913F912F910F900FBE6E
:1016A0000F901F9018951F920F920FB60F92112452
:1016B0002F933F934F935F936F937F938F939F935A
:1016C000AF93BF93EF93FF93E0910101F09102017B
:1016D0000995FF91EF91BF91AF919F918F917F916C
:1016E0006F915F914F913F912F910F900FBE0F908F
:1016F0001F9018951F920F920FB60F9211242F93DF
:101700003F934F935F936F937F938F939F93AF9389
:10171000BF93EF93FF938AE393E00E94E101FF916F
:10172000EF91BF91AF919F918F917F916F915F9159
:101730004F913F912F910F900FBE0F901F901895D2
:101740001F920F920FB60F9211242F938F939F9396
:10175000EF93FF93E0914A03F0914B038081E09176
:101760005003F091510382FD1BC09081809153037F
:101770008F5F8F7320915403821741F0E0915303E0
:10178000F0E0E65CFC4F958F80935303FF91EF915F
:101790009F918F912F910F900FBE0F901F901895D2
:1017A0008081F4CF809135038F5F80933503089556
:1017B000CF93DF93FC01A085B18582819381248141
:1017C0003581EC013D832C83C481D5819B838A8341
:1017D00011968D919C9112978E179F0721F4129666
:1017E000DC93CE931197118610868C9181508C9347
:1017F000DF91CF9108950F931F93CF93DF938C01C7
:10180000FB0180819181D80113968F3F9807F1F4F5
:10181000E801AF81B88512968D919C9113979383BF
:101820008283EC01FD83EC83B583A4831396FC9340
:10183000EE93129711870087F80180818F5F808374
:10184000DF91CF911F910F910895D90112962D919B
:101850003C911397E9014881598184179507A8F7AE
:10186000DACFE0913103F09132038081811107C01A
:101870008FEF9FEF90932C0380932B030895E091BB
:101880003103F09132030580F681E02D8081918152
:10189000F1CF0FB6F8940F92FC01928D0F900FBE0E
:1018A00081E0911180E00895FC0103969283818389
:1018B0002FEF3FEF3483238396838583908787833D
:1018C00010820895FC017383628391878087461795
:1018D000570790F0421B530B84859585481759078D
:1018E000C8F4BF016E5F7F4F8091B3029091B40244
:1018F0000E94FB0B80E008954217530718F462170B
:10190000730740F4BF016E5F7F4F8091B5029091E5
:10191000B602EECF81E00895EF92FF920F931F93EE
:10192000CF93DF93EC018B017A016C857D85600F8D
:10193000711F9801A701CE010E94620C811107C09E
:10194000DF91CF911F910F91FF90EF9008958C85BB
:101950009D85080F191FE889F989CE010995E5CF02
:10196000EF92FF920F931F93CF93DF938C017B0134
:10197000E091B502F091B6020580F681E02DC681B6
:10198000D781CE0102960E94D80B8A8982FF0FC0B0
:10199000A701B801CE010E948C0CE889F989CE011B
:1019A000DF91CF911F910F91FF90EF9009948E7F5F
:1019B0008A8BF3CFE091B502F091B602808181115C
:1019C0000DC08091B3029091B4029093B6028093BF
:1019D000B502F093B402E093B30208950580F68156
:1019E000E02D6FEF7FEF808191810E94B00CE2CFFC
:1019F000BF92CF92DF92EF92FF920F931F93CF93FC
:101A0000DF93EC01B62EC0903303D09034030091E5
:101A1000310310913203E0902F03F0903003809156
:101A20002D0390912E0302960E94D80BCF3FDC0726
:101A300009F042C0BB2009F43FC0E091BD02F09123
:101A4000BE02A0912D03B0912E031596FC93EE9348
:101A50001497A0912D03B0912E0384819581179640
:101A60009C938E93169780912D0390912E03A481C1
:101A7000B581029613969C938E93129780912D03B5
:101A800090912E03029695838483E0912D03F0912B
:101A90002E038CEB92E0938782878091BC028F5F4C
:101AA0008093BC02DF91CF911F910F91FF90EF9037
:101AB000DF90CF90BF900895CC0DDD1DE0912D03F8
:101AC000F0912E03D383C28360912D0370912E0376
:101AD0006E5F7F4FCC15DD0560F4C701DF91CF91BC
:101AE0001F910F91FF90EF90DF90CF90BF900C94DB
:101AF000FB0BC8010E94FB0B80912B0390912C03E0
:101B0000C817D90778F6D0932C03C0932B03CACFFC
:101B1000CF93DF93DC011596ED91FC910680F78160
:101B2000E02DA489B5898685978520893189EC01C6
:101B30003D832C83C089D1899B838A83CF010C96F6
:101B400011962D913C9112972817390721F412967E
:101B5000DC93CE931197158A148A2C9121502C93E3
:101B600020913503211157C0A285B38584819581C9
:101B700026813781EC013D832C83C681D7819B83ED
:101B80008A83CF01029611962D913C9112972817C6
:101B9000390721F41296DC93CE931197138612869F
:101BA0002C9121502C93C689209120032C1710F4DE
:101BB000C093200329E02C9FE0011124C450DD4F85
:101BC0000980DA81C02DD583C4834C815D81578320
:101BD0004683AC81BD8113969C938E9312979D830F
:101BE0008C83A689A29FD0011124A450BD4FB38736
:101BF000A2878C918F5F8C93A0912D03B0912E03BF
:101C0000968956968C91891730F581E08093FB0276
:101C1000DF91CF910895A0912203B0912303B7875C
:101C2000A68714962D913C911597318B208B149695
:101C3000CD91DC9115979B838A8315969C938E9307
:101C4000149781E293E0958B848B809121038F5FC1
:101C500080932103D1CF80E0DBCFEF92FF920F93EF
:101C60001F93CF93DF93EC010FB6F8940F921E8D64
:101C70007C0181E1E80EF11C01E01116D4F08FEF38
:101C80008E8F0F900FBE0FB6F8940F921D8D7E01B0
:101C900088E0E80EF11C01E01116B4F08FEF8D8F93
:101CA0000F900FBEDF91CF911F910F91FF90EF909A
:101CB00008958989882319F3C7010E94880D81112D
:101CC0000093FB021150D9CF8885882339F3C701CF
:101CD0000E94880D81110093FB021150DDCF0FB6D9
:101CE000F8940F9280913303909134030F900FBEBC
:101CF00008950F920FB6F8940F921F9211242F920D
:101D00003F924F925F926F927F928F929F92AF928B
:101D1000BF92CF92DF92EF92FF920F931F932F9378
:101D20003F934F935F936F937F938F939F93AF9363
:101D3000BF93CF93DF93EF93FF93A0912D03B091C7
:101D40002E030DB60D920EB60D92809135038823A9
:101D500021F081E08093FB0261C01092FB02A09110
:101D60002D03B0912E03E0912D03F0912E032D91C0
:101D70003C918789908D82179307A8F080912D035D
:101D800090912E0380912D0390912E03259A2D9AE8
:101D90002FEF87EA91E6215080409040E1F700C0A4
:101DA00000001D9AF5CF2091200389E001C0215049
:101DB000422F50E0849FF001859FF00D1124E450E4
:101DC000FD4F9081992399F3A181B28112966D9173
:101DD0007C9172836183289FC001112481509D4FA3
:101DE0006817790721F4858196819283818389E040
:101DF000849FF001859FF00D1124E450FD4F018078
:101E0000F281E02D8681978190932E0380932D039C
:101E10002093200380912D0390912E03A0912D03F8
:101E2000B0912E03CD91CDBFDD91DEBFFF91EF913B
:101E3000DF91CF91BF91AF919F918F917F916F91E2
:101E40005F914F913F912F911F910F91FF90EF90D4
:101E5000DF90CF90BF90AF909F908F907F906F90CA
:101E60005F904F903F902F901F900F900FBE0F905C
:101E700008958F929F92BF92CF92DF92EF92FF923E
:101E80000F931F93CF93DF930FB6F8940F92809127
:101E9000350381508093350380913503882379F091
:101EA00080E00F900FBEDF91CF911F910F91FF90B7
:101EB000EF90DF90CF90BF909F908F90089580918A
:101EC0002A03882369F3E0902603F0902703F0E0CB
:101ED000E0E039E041E08091210381115EC0EF2B09
:101EE00011F00E94310CE090F902F090FA02E11436
:101EF000F10409F47DC189E0D82ECC24C3940FEFFE
:101F00001FEF80913503811161C1C0913303D091DE
:101F100034034E018FEF881A980A9092340380920E
:101F2000330381149104B9F4809131039091320309
:101F300020912F03309130033093320320933103EB
:101F40009093300380932F038091F8028F5F8093EA
:101F5000F8020E94310C80912B0390912C03B12C3C
:101F60008816990608F026C1E0912D03F0912E0302
:101F7000E689DE9EF0011124E450FD4F808182301D
:101F800010F0BB24B3948091FB02811103C0BB20ED
:101F900009F425C1C092FB0222C1D7011696ED912A
:101FA000FC91A489B5896685778580899189EB0143
:101FB0009D838C8380899189EC017B836A83BF0137
:101FC000645F7F4F11960D911C91129706171707AA
:101FD00021F412969C938E931197158A148A8C91F2
:101FE00081508C93A285B3858481958166817781A8
:101FF000EC017D836C8366817781EB019B838A830F
:10200000CF01029611960D911C911297081719078E
:1020100021F412967C936E931197138612862C915D
:1020200021502C93A689209120032A1710F4A09305
:1020300020033A9FD0011124A450BD4F11960D905A
:10204000BC91A02DB583A48314966D917C911597B6
:102050007783668314966D917C911597EB019B8332
:102060008A8315969C938E9314979689939FD0019B
:102070001124A450BD4FB387A2878C918F5F8C939E
:10208000A0912D03B0912E0356968C91891708F0DC
:1020900022CF4093FB021FCFE0913103F091320336
:1020A0000580F681E02D0680F781E02D8281938105
:1020B0008816990628F490932C0380932B0354CF11
:1020C000C285D3858481958126813781DC0115966F
:1020D0003C932E93149726813781D90113969C93B4
:1020E0008E931297CF01029649815A81481759075A
:1020F00011F43A832983138612862881215028837C
:10210000A489B5891097F9F02685378540895189CA
:10211000E9015D834C8340895189EA013B832A832D
:1021200011966D917C9112979F01245F3F4F62172A
:10213000730721F412965C934E931197158A148AB3
:102140002C9121502C93A689209120032A1710F45A
:10215000A0932003DA9ED0011124A450BD4F119604
:102160000D90BC91A02DB583A48314962D913C9124
:1021700015973783268314962D913C911597E90185
:102180009B838A8315969C938E93149796899D9D25
:10219000D0011124A450BD4FB387A2878C918F5FCB
:1021A0008C93E0912D03F0912E038689891710F40A
:1021B000BB24B394E0913103F0913203808181110B
:1021C0006BCF10932C0300932B03CECE8091F9029A
:1021D0009091FA0201969093FA028093F902D1E06D
:1021E000ED1AF10809F08DCE1092FA021092F90260
:1021F0008091FB02882309F453CE80912D039091A6
:102200002E030E94790E81E04CCECF93DF93EC0138
:10221000892B29F40E94790EDF91CF9108950E94B5
:10222000D20B60E0CE010E94F80C0E94390F882387
:1022300089F3F2CFCF93DF93009751F0EC010E9426
:10224000D20BCE010E947A1BDF91CF910C94390FF3
:10225000DF91CF910895CF93DF93EC010E94D20BD1
:10226000CE010E94DE1AEC010E94390F209769F41A
:10227000259A2D9A2FEF80E792E0215080409040E0
:10228000E1F700C000001D9AF5CFCE01DF91CF919C
:102290000895BF92CF92DF92EF92FF920F931F9318
:1022A000CF93DF93809135038F5F80933503409107
:1022B000330350913403E0903103F0903203C09126
:1022C0002F03D0913003E0912D03F0912E038285EE
:1022D00093856481758126813781DB0115963C9356
:1022E0002E93149726813781D90113967C936E9390
:1022F0001297BF016E5F7F4FDC0111960D911C910B
:1023000012970617170721F412963C932E931197F4
:1023100013861286FC01208121502083CA010C966D
:10232000E0912D03F0912E03938382838417950708
:1023300008F0B3C000912D0310912E03C80102963E
:10234000D80112962D913C91FE0133962F3F320712
:1023500009F09AC0EF81F88522813381D801159662
:102360003C932E931497D90115969C938E931497B2
:10237000D8011796FC93EE931697938382831B964E
:10238000DC93CE931A9788818F5F88830FB6F89479
:102390000F928091350381508093350380913503EE
:1023A000882309F4B6C080E00F900FBE811102C0EF
:1023B0000E94790E3FB7F8948091360390913703CD
:1023C000A0913803B091390326B5A89B05C02F3FD3
:1023D00019F00196A11DB11D3FBFBA2FA92F982F4B
:1023E0008827820F911DA11DB11D12E0880F991F32
:1023F000AA1FBB1F1A95D1F708E010E020E030E0DB
:10240000FFB7F89440913603509137036091380339
:1024100070913903E6B5A89B06C0EF3F21F04F5FEE
:102420005F4F6F4F7F4FFFBF762F652F542F44278D
:102430004E0F511D611D711DC2E0440F551F661FD7
:10244000771FCA95D1F7481B590B6A0B7B0B483E87
:10245000534061057105A0F20150110921093109AC
:1024600088519C4FAF4FBF4F011511052105310514
:1024700039F6DF91CF911F910F91FF90EF90DF9090
:10248000CF90BF900895FA0142815381DA016D9196
:102490007C9126173707B8F75FCFC0912D03D091F5
:1024A0002E039E012E5F3F4F4A815B81F7013396D9
:1024B0004F3F540729F5D7011796ED91FC914281C2
:1024C00053815D834C83DA0115963C932E931497C8
:1024D000FF83EE8333832283FB86EA86E70128812C
:1024E0002F5F288320912B0330912C0382179307B1
:1024F00008F04CCF90932C0380932B0347CFFB0124
:1025000062817381DB010D911C9140175107B8F76F
:10251000D6CF80912A03882309F445CFE090260383
:10252000F0902703F0E0E0E039E041E08091210302
:1025300081116CC0EF2B69F0E0913103F09132030F
:1025400080818111E2C08FEF9FEF90932C038093E5
:102550002B032091F9023091FA022115310509F47B
:1025600095C159E0BB24B3946FEF7FEF80913503A1
:1025700081117BC180913303909134030196909334
:10258000340380933303009701F5E0913103F09118
:102590003203A0912F03B0913003B0933203A09384
:1025A0003103F0933003E0932F034091F8024F5F23
:1025B0004093F802E0913103F091320340814111E0
:1025C000AEC070932C0360932B03E0912B03F0912A
:1025D0002C0340E08E179F0708F03BC1E0912D03CC
:1025E000F0912E03E6895E9FF0011124E450FD4F27
:1025F0008081823008F041E08091FB02811103C0AC
:10260000442309F43BC1B092FB0238C1D7011696AE
:10261000ED91FC91A489B58966857785808991893A
:10262000EB019D838C8380899189EC017B836A8394
:10263000BF01645F7F4F11960D911C911297061791
:10264000170721F412969C938E931197158A148A7A
:102650008C9181508C93A285B3858481958166810C
:102660007781EC017D836C8366817781EB019B83AD
:102670008A83CF01029611960D911C91129708172B
:10268000190721F412967C936E9311971386128684
:102690002C9121502C93A689209120032A1710F405
:1026A000A09320033A9FD0011124A450BD4F11964E
:1026B0000D90BC91A02DB583A48314966D917C914F
:1026C00015977783668314966D917C911597EB012E
:1026D0009B838A8315969C938E9314979689939FD8
:1026E000D0011124A450BD4FB387A2878C918F5F76
:1026F0008C93A0912D03B0912E0356968C9189173F
:1027000008F014CF4093FB0211CFE0913103F09118
:1027100032030580F681E02D8081918116CFE09112
:102720003103F09132030580F681E02D0190F081B4
:10273000E02DF0932C03E0932B0347CFE09131037E
:10274000F09132030580F681E02D0680F781E02DBF
:10275000A281B3818A179B0728F4B0932C03A0931E
:102760002B033CCFA285B38504811581E680F780D9
:10277000E801FD82EC82C681D7811B830A838F0129
:102780000E5F1F4F1196ED90FC901297E016F10628
:1027900021F41296DC93CE93119713861286CC9176
:1027A000C150CC93A489B5891097F1F0C684D78421
:1027B000E088F188E601FD82EC82E088F188E7019B
:1027C000DB82CA821196CD90DC901297EF012C9695
:1027D000CC16DD0621F41296FC92EE921197158A22
:1027E000148ACC91C150CC93A689B0912003BA171A
:1027F00010F4A09320035A9FD0011124A450BD4F80
:1028000011960D90BC91A02DB583A4831496CD9103
:10281000DC911597D783C6831496CD91DC911597DB
:102820001B830A8315961C930E931497C689C59F24
:10283000D0011124A450BD4FB387A287EC91EF5F64
:10284000EC93E0912D03F0912E03E689EC1708F448
:1028500041E0E0913103F0913203E081E1116ECF6C
:1028600070932C0360932B03B9CE8091F902909161
:10287000FA0201969093FA028093F90221503109ED
:1028800009F074CE1092FA021092F9028091FB02C4
:10289000882309F488CD80912D0390912E030E9406
:1028A000790E81E081CD7F928F929F92AF92BF92FD
:1028B000CF92DF92EF92FF920F931F93CF93DF930C
:1028C000982EA92E762E872E7A01B22ECA010E944A
:1028D0002B116C01892B09F4EDC080E390E00E947C
:1028E0002B11EC01892B09F4E2C080E3DE011D927B
:1028F0008A95E9F7D88ECF8AA70165EA70E0C6010C
:102900000E94FE1DB1E0EB1AF108EF89F88DEE0D83
:10291000FF1D672D782DCE0149969B01205F3F4F0B
:10292000DB014D91BD01DC014D93CD01AB01415067
:102930005109DA014C91442319F02617370781F722
:1029400018A6BE8AB9A61B861A861D8A1C8AD98734
:10295000C88784E090E08B1991099D878C87DB8B79
:10296000CA8B9082DF011197AC9211971C9211973C
:1029700080E88C9311971C9257971C9211971C9288
:10298000B397F983E8830115110519F0F801D18394
:10299000C0830FB6F8940F9280912A038F5F8093C3
:1029A0002A0380912D0390912E03892B09F091C069
:1029B000D0932E03C0932D0380912A03813081F59B
:1029C0008CEF92E00E94540C85E093E00E94540C3E
:1029D0008EE093E00E94540C87E193E00E94540C37
:1029E00087ED92E00E94540C8EEC92E00E94540C11
:1029F00081E293E00E94540C85EC92E00E94540C1A
:102A00008CEB92E00E94540C87ED92E0909332039D
:102A1000809331038EEC92E09093300380932F03E8
:102A20008091E0028F5F8093E002AE898091200365
:102A30008A1710F4A093200329E02A9FD0011124C3
:102A4000A450BD4F11960D90BC91A02DBD83AC83B9
:102A500014968D919C9115979F838E831496ED917A
:102A6000FC911597CE0102969383828315969C93D1
:102A70008E931497EE89E29FF0011124E450FD4FEC
:102A8000FB87EA8780818F5F80830F900FBE8091E4
:102A9000E102882351F0E0912D03F0912E039689F5
:102AA0008E89981710F40E94790E81E004C0C60147
:102AB0000E941A118FEFDF91CF911F910F91FF901C
:102AC000EF90DF90CF90BF90AF909F908F907F90CE
:102AD00008958091E1028111A3CFE0912D03F0913F
:102AE0002E0396898E89891708F49ACFD0932E03E6
:102AF000C0932D0395CF0F931F93CF93DF93CDB743
:102B0000DEB760970FB6F894DEBF0FBECDBFA0E66C
:102B1000B1E0FE01319620E731E0BF018D91819354
:102B2000882319F02A173B07C9F708E912E020E0CB
:102B300040EC50E085E696E10E945314882309F4A6
:102B4000B7C0813009F0B4C00FB6F8940F928091ED
:102B5000B1029091B202892B09F050C083EA92E051
:102B60000E94540C8AE992E00E94540C83EA92E09D
:102B70009093B6028093B5028AE992E09093B402F2
:102B80008093B30281E590E00E942B118C010097A5
:102B900089F14F96F801918380838AE0838F85E0E5
:102BA000848F0FB6F8940F9280819181238D448D8C
:102BB000BC01249F600D711D112475836483128EE6
:102BC000938382832150330B429FB001439F700D4A
:102BD0001124860F971F978386838FEF858F868FAB
:102BE000C80108960E94540CC80141960E94540CDA
:102BF0000F900FBE1093B2020093B1020F900FBE60
:102C00008091B1029091B202892B09F451C00CEA73
:102C100012E023E04CE550E065E671E083E698E1E0
:102C20000E945314813009F043C0F8942FEF3FEF16
:102C300030932C0320932B038093E10210923403F2
:102C400010923303A89588E190EC0FB6F894A895FC
:102C5000809360000FBE90936000A0912D03B0910F
:102C60002E03CD91CDBFDD91DEBFFF91EF91DF91BE
:102C7000CF91BF91AF919F918F917F916F915F9114
:102C80004F913F912F911F910F91FF90EF90DF9007
:102C9000CF90BF90AF909F908F907F906F905F90FC
:102CA0004F903F902F901F900F900FBE0F90089560
:102CB0008091000160960FB6F894DEBF0FBECDBFC5
:102CC000DF91CF911F910F91089500E010E0809166
:102CD000AE0281110CC08091FC02823010F00E9483
:102CE000790E0115110599F30E94D401F0CF0FB6AA
:102CF000F8940F92E091CA02F091CB02C681D7817D
:102D0000CE0102960E94D80B80912A0381508093B5
:102D10002A038091AE0281508093AE020F900FBEC5
:102D20008F89988D0E941A11CE010E941A11CFCF5F
:102D30000F920FB6F8940F921F9211242F923F9288
:102D40004F925F926F927F928F929F92AF92BF92BB
:102D5000CF92DF92EF92FF920F931F932F933F93A7
:102D60004F935F936F937F938F939F93AF93BF9393
:102D7000CF93DF93EF93FF93A0912D03B0912E0398
:102D80000DB60D920EB60D9213BE809135038111D2
:102D9000F9C08091330390913403019690933403EA
:102DA00080933303009781F52091310330913203F2
:102DB00040912F03509130035093320340933103DD
:102DC0003093300320932F032091F8022F5F20933C
:102DD000F802E0913103F09132032081211107C004
:102DE0002FEF3FEF30932C0320932B030DC0E09186
:102DF0003103F09132030580F681E02D208131818D
:102E000030932C0320932B0320912B0330912C0320
:102E10008217930710F420E0A1C020E039E0D32E00
:102E2000E0913103F09132033081311107C08FEF0F
:102E30009FEF90932C0380932B0390C0E09131037C
:102E4000F09132030580F681E02D0680F781E02DB8
:102E5000428153818417950728F450932C034093A3
:102E60002B037CC0A285B38544815581668177811F
:102E7000EA017D836C8366817781EB015B834A8302
:102E8000AF014E5F5F4F11960D911C911297041781
:102E9000150721F412967C936E9311971386128670
:102EA0003C9131503C93A489B5891097F9F066851F
:102EB000778500891189EB011D830C8300891189B5
:102EC000E8017B836A831196ED90FC901297BF0115
:102ED000645F7F4FE616F70621F412961C930E935B
:102EE0001197158A148A3C9131503C93A6893091F0
:102EF00020033A1710F4A0932003DA9ED001112486
:102F0000A450BD4F11960D90BC91A02DB583A48304
:102F100014966D917C9115977783668314966D91C5
:102F20007C911597EB015B834A8315965C934E93D6
:102F3000149746894D9DD0011124A450BD4FB387ED
:102F4000A2873C913F5F3C93E0912D03F0912E03CB
:102F50003689341708F064CF21E062CFE0912D0369
:102F6000F0912E03E689D9E0ED9FF0011124E450A1
:102F7000FD4F8081823008F021E08091FB028111B9
:102F80000EC00AC08091F9029091FA0201969093C6
:102F9000FA028093F9026CC0222309F469C080917F
:102FA0003503882321F081E08093FB0261C01092F9
:102FB000FB02A0912D03B0912E03E0912D03F0911F
:102FC0002E032D913C918789908D82179307A8F04D
:102FD00080912D0390912E0380912D0390912E03CB
:102FE000259A2D9A2FEF87EA91E621508040904054
:102FF000E1F700C000001D9AF5CF2091200389E081
:1030000001C02150422F50E0849FF001859FF00DB8
:103010001124E450FD4F9081992399F3A181B2814D
:1030200012966D917C9172836183289FC001112457
:1030300081509D4F6817790721F48581968192838D
:10304000818389E0849FF001859FF00D1124E45075
:10305000FD4F0180F281E02D8681978190932E03B0
:1030600080932D032093200380912D0390912E03B4
:10307000A0912D03B0912E03CD91CDBFDD91DEBF88
:10308000FF91EF91DF91CF91BF91AF919F918F9180
:103090007F916F915F914F913F912F911F910F9170
:1030A000FF90EF90DF90CF90BF90AF909F908F9068
:1030B0007F906F905F904F903F902F901F900F9058
:1030C0000FBE0F900895CF93DF9300D000D01F92D2
:1030D000CDB7DEB785E0B82ECE0101967C01E09138
:1030E000B502F091B6021081D12CC12C112329F028
:1030F0000580F681E02DC080D1800E94D20B0E9415
:103100006F0E4C018091AF029091B0028816990623
:1031100008F089C00E94DA0C9092B0028092AF024F
:103120000E94390FD701EB2D1D92EA95E9F7009126
:10313000B1021091B2020FB6F8940F92D8015A96CC
:10314000DC905A97DD2009F42FC15C964C915C9776
:103150004423F9F050E016968D919C911797840FB7
:10316000951F17969C938E93169714962D913C91CC
:1031700015978217930738F08D919C9111971796A8
:103180009C938E931697F80166817781C7010E9400
:10319000F51DDA94D8015A96DC925A9718968C91BC
:1031A000882339F0C80108960E94880D81110E9479
:1031B000790E0F900FBEA980A7FCB9CF0C811D819D
:1031C000D8011A968D919C91892B21F0C801029605
:1031D0000E94D80B0E946F0E6C018091AF029091FB
:1031E000B002C816D90610F40E94DA0CD092B002D0
:1031F000C092AF02EFEFEA0DE93008F098CF0E2E43
:10320000000CFF0BE65FF64ED80152968C91529758
:103210000C94251C8D198D19D019B819CA198D193E
:103220008D19D019B8199092B0028092AF02112373
:1032300051F08C149D0470F00E94390FB401C60146
:103240000E94B00C6FCFE091B302F091B40261E044
:103250008081811160E00091B1021091B2020FB63D
:10326000F8940F92D8015D968C915D978F3F11F481
:103270005D961C92F801868D8F3F09F4168E0F9093
:103280000FBED8015A968C915A9781113CC0529624
:10329000ED91FC91A0912D03B0912E031F96FC930C
:1032A000EE931E97A0912D03B0912E0384819581FA
:1032B00051969C938E93509780912D0390912E035D
:1032C000A481B5810C9613969C938E93129780914E
:1032D0002D0390912E030C9695838483E0912D030A
:1032E000F0912E03C8014196958B848BF80181895A
:1032F0008F5F818BC60188199909662311F08FEFC2
:103300009FEF0E94F80CC8010E942D0E0E94390FF9
:10331000811108CF0E94790E05CF8160F801828B60
:103320008A809B8064857585680D791D9401A6014E
:10333000C8010E94620C882309F4F9CED801529684
:103340008C91529782FF10C01C966D917C91680DF4
:10335000791DA601C8010E948C0CD8015096ED91F0
:10336000FC91C8010995E3CE8E7FF801828BF5CFE1
:10337000816052968C9352976A817B811D967C93D3
:103380006E931C976C0D7D1D9601A601C8010E94CD
:10339000620CCDCE81FD04C0C8010E941A11C7CEB7
:1033A0008E7FF801828BC3CE0F900FBE98CE0E9405
:1033B00098161895CF9310923D0310923C0388EE17
:1033C00093E0A0E0B0E080933E0390933F03A0938E
:1033D0004003B093410389E391E090933B038093D2
:1033E0003A0385EC90E0909347038093460384EC86
:1033F00090E0909349038093480380EC90E0909391
:103400004B0380934A0381EC90E090934D038093AB
:103410004C0382EC90E090934F0380934E0386EC34
:1034200090E09093510380935003109253031092B5
:10343000540310925503109256031092D803109221
:10344000D70381E08093D9031092DB031092DA0353
:103450001092DD031092DC031092DF031092DE0362
:1034600081EE93E09093E8038093E703CFB7F8945D
:103470008091E003811127C0E9EBF0E08491E5EA57
:10348000F0E09491E82FF0E0EE0FFF1FEF56FF4FB2
:10349000A591B491EC91E92321F461E08AE00E94C6
:1034A000B20061E08AE00E9403018CB580618CBDAE
:1034B0008CB580648CBD61E08DE00E94030161E009
:1034C0008BE00E9403018091E0038F5F8093E00313
:1034D000CFBF89E08093E20380E896E9A8E9B0E0F5
:1034E0008093E3039093E403A093E503B093E60392
:1034F00061E089E00E94030161E08091E203CF91E5
:103500000C94B200789484B5826084BD84B58160E7
:1035100084BD85B5826085BD85B5816085BD80919E
:103520006E00816080936E00109281008091810016
:10353000826080938100809181008160809381000E
:10354000809180008160809380008091B1008460D0
:103550008093B1008091B00081608093B000809131
:103560007A00846080937A0080917A0082608093F0
:103570007A0080917A00816080937A0080917A004D
:10358000806880937A001092C100209109013091E7
:103590000A018FEF98E0821B930B909306018093B2
:1035A00005010E94FC060E947B150E94FC06C0E0FB
:1035B000D0E02097F1F30E94D401FBCF0F931F932B
:1035C000CF93DF938230910510F482E090E0E09198
:1035D000F203F091F30330E020E0B0E0A0E0309798
:1035E00099F42115310509F44AC0281B390B243000
:1035F0003105D8F58A819B816115710589F1FB013F
:1036000093838283FE0111C0408151810281138125
:1036100048175907E0F04817590799F4109761F0D7
:1036200012960C93129713961C933296CF01DF914A
:10363000CF911F910F9108950093F2031093F3031C
:10364000F4CF2115310551F04217530738F0A90185
:10365000DB019A01BD01DF01F801C1CFEF01F9CF14
:103660009093F3038093F203CDCFFE01E20FF31F9B
:10367000819391932250310939832883D7CF2091A8
:10368000F0033091F103232B41F420910701309195
:1036900008013093F1032093F0032091050130914C
:1036A00006012115310541F42DB73EB740910901BE
:1036B00050910A01241B350BE091F003F091F103C6
:1036C000E217F307A0F42E1B3F0B2817390778F0F9
:1036D000AC014E5F5F4F2417350748F04E0F5F1F58
:1036E0005093F1034093F003819391939FCFF0E0C7
:1036F000E0E09CCFCF93DF930097E9F0FC01329795
:1037000013821282A091F203B091F303ED0130E035
:1037100020E01097A1F420813181820F931F209126
:10372000F0033091F1032817390709F061C0F093D5
:10373000F103E093F003DF91CF910895EA01CE17F2
:10374000DF07E8F54A815B819E0141155105B1F71C
:10375000E901FB83EA8349915991C40FD51FEC1706
:10376000FD0761F4808191810296840F951FE90124
:1037700099838883828193819B838A83F0E0E0E050
:1037800012968D919C9113970097B9F52D913C91CC
:103790001197CD010296820F931F2091F003309173
:1037A000F1032817390739F6309751F51092F303D2
:1037B0001092F203B093F103A093F003BCCFD38334
:1037C000C28340815181840F951FC817D90761F4C6
:1037D0004E5F5F4F88819981480F591F5183408305
:1037E0008A819B81938382832115310509F0B0CFB3
:1037F000F093F303E093F2039ECFFD01DC01C0CF11
:1038000013821282D7CFA1E21A2EAA1BBB1BFD0185
:103810000DC0AA1FBB1FEE1FFF1FA217B307E407AF
:10382000F50720F0A21BB30BE40BF50B661F771F07
:10383000881F991F1A9469F76095709580959095E7
:103840009B01AC01BD01CF010895EE0FFF1F059054
:10385000F491E02D09945058BB27AA270E94431CDD
:103860000C94441D0E94361D38F00E943D1D20F02E
:1038700039F49F3F19F426F40C94331D0EF4E095AF
:10388000E7FB0C942D1DE92F0E94551D58F3BA1724
:10389000620773078407950720F079F4A6F50C9466
:1038A000771D0EF4E0950B2EBA2FA02D0B01B90158
:1038B00090010C01CA01A0011124FF27591B99F0A6
:1038C000593F50F4503E68F11A16F040A22F232FB2
:1038D000342F4427585FF3CF469537952795A79502
:1038E000F0405395C9F77EF41F16BA0B620B730BA9
:1038F000840BBAF09150A1F0FF0FBB1F661F771F1A
:10390000881FC2F70EC0BA0F621F731F841F48F4CE
:10391000879577956795B795F7959E3F08F0B0CF57
:103920009395880F08F09927EE0F9795879508953E
:103930000E94091D08F481E008950E945D1D88F031
:103940009F5798F0B92F9927B751B0F0E1F0660F63
:10395000771F881F991F1AF0BA95C9F714C0B130A4
:1039600091F00E94771DB1E008950C94771D672FA8
:10397000782F8827B85F39F0B93FCCF386957795D3
:103980006795B395D9F73EF49095809570956195BC
:103990007F4F8F4F9F4F0895E89409C097FB3EF4E7
:1039A00090958095709561957F4F8F4F9F4F99238C
:1039B000A9F0F92F96E9BB279395F695879577950A
:1039C0006795B795F111F8CFFAF4BB0F11F460FFCA
:1039D0001BC06F5F7F4F8F4F9F4F16C0882311F022
:1039E00096E911C0772321F09EE8872F762F05C036
:1039F000662371F096E8862F70E060E02AF09A95D1
:103A0000660F771F881FDAF7880F9695879597F9C5
:103A10000895990F0008550FAA0BE0E8FEEF16165F
:103A20001706E807F907C0F012161306E407F507B2
:103A300098F0621B730B840B950B39F40A2661F026
:103A4000232B242B252B21F408950A2609F4A140C9
:103A5000A6958FEF811D811D089597F99F6780E8D6
:103A600070E060E008959FEF80EC089500240A94D0
:103A70001616170618060906089500240A94121649
:103A80001306140605060895092E0394000C11F47C
:103A9000882352F0BB0F40F4BF2B11F460FF04C029
:103AA0006F5F7F4F8F4F9F4F089557FD9058440F82
:103AB000551F59F05F3F71F04795880F97FB991F8D
:103AC00061F09F3F79F0879508951216130614064A
:103AD000551FF2CF4695F1DF08C0161617061806D7
:103AE000991FF1CF86957105610508940895E894B2
:103AF000BB2766277727CB0197F908950E94091DF8
:103B000008F48FEF08950E94961D0C94441D0E94A6
:103B1000361D38F00E943D1D20F0952311F00C94C5
:103B20002D1D0C94331D11240C94781D0E94551DDD
:103B300070F3959FC1F3950F50E0551F629FF00100
:103B4000729FBB27F00DB11D639FAA27F00DB11D19
:103B5000AA1F649F6627B00DA11D661F829F2227A2
:103B6000B00DA11D621F739FB00DA11D621F839F29
:103B7000A00D611D221F749F3327A00D611D231FFF
:103B8000849F600D211D822F762F6A2F11249F574D
:103B900050409AF0F1F088234AF0EE0FFF1FBB1F50
:103BA000661F771F881F91505040A9F79E3F51050F
:103BB00080F00C942D1D0C94781D5F3FE4F3983E2B
:103BC000D4F3869577956795B795F795E7959F5FB9
:103BD000C1F7FE2B880F911D9695879597F908954B
:103BE0000E94091D880B990B0895FB01DC0102C09E
:103BF00001900D9241505040D8F70895DC0101C06A
:0E3C00006D9341505040E0F70895F894FFCFC7
:103C0E0003340134010000F40380000000010002BF
:103C1E0000030004000500000001000200303136F0
:103C2E0040414650515660616601707176024645BC
:103C3E00574954560000000000030260018D0150E8
:103C4E0002BE019C01B0013A20006E616E00696EE9
:103C5E0066006F76660030780030620054004600D1
:103C6E0049444C4500546D72205376630066616979
:103C7E006C2073657474696E672062697472617406
:103C8E0065004661696C2073657474696E67206E99
:103C9E006F726D616C206D6F64650043414E2068DC
:103CAE00616E646C657200626C696E6B6572730036
:103CBE004661696C656420746F206372656174651A
:103CCE00207461736B73005374617274696E672034
:103CDE007363686564756C65720A0070726F6772E3
:103CEE00616D20656E64656400557265636F676E05
:103CFE006973656420626C696E6B657220737461A2
:103D0E00746500626C696E6B657273207374617496
:103D1E0065207570646174656420746F3A20256443
:103D2E0000557265636F676E69736564206C6564B8
:103D3E0020737472697065207374617465004C65CC
:103D4E006420737472697065207374617465207574
:103D5E0070646174656420746F3A20256400726F1C
:103D6E00746174696F6E733A2025640A00556E7221
:103D7E0065636F676E697A65642043414E20667293
:0E3D8E00616D652049443A20307825580000C8
:00000001FF
